:100000000C9436000C9440060C949B010C94400612
:100010000C9440060C9440060C9440060C94400648
:100020000C9440060C9440060C9440060C945A0321
:100030000C9440060C9440060C9440060C94400628
:100040000C9440060C9440060C9440060C94400618
:100050000C944006006000768000760078000C88E2
:100060000078007A80007A007C000C8A11241FBE80
:10007000CFE5D8E0DEBFCDBFE4E5F0E040E017C05B
:10008000B591A59135912591059107FD0CC09591EC
:100090008591EF01F92FE82F05900D92A217B30774
:1000A000D9F7FE0104C01D92A217B307E1F7EC36A1
:1000B000F40731F70E9460000C945E00F894FFCFC3
:1000C0000E945B05789410926E0010926F0010925F
:1000D0007000109271008BEB90E00E943A060E9433
:1000E000C70585EA9EE00197F1F700C000000E9475
:1000F0003206682F70E080E090E00E94E1026B0120
:100100007C0160916E0070916F0080917000909101
:10011000710020E030E048E452E40E942D061816F9
:100120000CF086C020E030E04CE552E4C701B60197
:100130000E94280618162CF12CE53FE842E250E414
:10014000C701B6010E9436066B017C0162ED86E7AD
:1001500090E00E94080520E030E040EF52E4C70143
:10016000B6010E9407060E942A04CB010E943A06AB
:100170008AE790E00E9472058BE790E00E9472058A
:10018000AECF20E030E048EC52E4C701B6010E9457
:100190002D068823ACF120E030E04BE153E4C701A9
:1001A000B6010E94280618165CF120E030E048EC09
:1001B00052E4C701B6010E9406062CE53FE842E280
:1001C00050E40E9436066B017C0162ED86E790E008
:1001D0000E94080520E030E040EF52E4C701B6017C
:1001E0000E9407060E942A04CB010E943A068AE771
:1001F00090E00E9472058BE790E00E9488056FCF27
:1002000020E030E048E453E4C701B6010E942D0627
:1002100018160CF064CF86E790E00E949E058BE7ED
:1002200090E00E9472058AE790E00E94880557CF0F
:1002300086E790E00E949E058BE790E00E9488058B
:0A0240008AE790E00E9488054ACF8B
:10024A00843008F072C0683008F06FC0411138C0BD
:10025A00813091F028F08230D9F0833029F1089565
:10026A002AB381E090E002C0880F991F6A95E2F7ED
:10027A00809582238ABB089527B381E090E002C06B
:10028A00880F991F6A95E2F78095822387BB0895A4
:10029A0024B381E090E002C0880F991F6A95E2F7C3
:1002AA008095822384BB089521B381E090E002C047
:1002BA00880F991F6A95E2F78095822381BB08957A
:1002CA00413099F5813089F028F08230C9F08330C5
:1002DA0011F108952AB381E090E002C0880F991FB6
:1002EA006A95E2F7822B8ABB089527B381E090E0F2
:1002FA0002C0880F991F6A95E2F7822B87BB08957F
:10030A0024B381E090E002C0880F991F6A95E2F752
:10031A00822B84BB089521B381E090E002C0880F4C
:0C032A00991F6A95E2F7822B81BB0895B1
:100336001F920F920FB60F9211242F933F934F9354
:100346005F936F937F938F939F93AF93BF93EF9337
:10035600FF9380917900813009F04EC0809178003A
:1003660081110DC012BE81E0809378001092720058
:100376001092730010927400109275003DC0609147
:1003860060007091610080916200909163000E940C
:10039600E10260936E0070936F00809370009093FB
:1003A60071008091720090917300A0917400B091D9
:1003B6007500BA2FA92F982F882722B7BC01CD0127
:1003C600620F711D811D911D22ED31E040E050E06C
:1003D6000E94E6042093600030936100409362001F
:1003E6005093630010927200109273001092740082
:1003F6001092750010927800FF91EF91BF91AF9126
:100406009F918F917F916F915F914F913F912F9126
:0A0416000F900FBE0F901F90189575
:100420000FC00E940D0638F00E94140620F095239C
:1004300011F00C9422060C943D0611240C941C0619
:100440000E94C40470F3959FC1F3950F50E0551FAF
:10045000629FF001729FBB27F00DB11D639FAA2719
:10046000F00DB11DAA1F649F6627B00DA11D661F68
:10047000829F2227B00DA11D621F739FB00DA11D89
:10048000621F839FA00D611D221F749F3327A00D43
:10049000611D231F849F600D211D822F762F6A2FDF
:1004A00011249F5750409AF0F1F088234AF0EE0F44
:1004B000FF1FBB1F661F771F881F91505040A9F771
:1004C0009E3F510580F00C9422060C941C065F3F61
:1004D000E4F3983ED4F3869577956795B795F795AD
:1004E000E7959F5FC1F7FE2B880F911D9695879525
:0404F00097F90895DB
:1004F40011C00E940D0638F00E94140620F039F451
:100504009F3F19F426F40C943D060EF4E095E7FBA6
:100514000C942206E92F0E94C40458F3BA17620708
:1005240073078407950720F079F4A6F50C941B064D
:100534000EF4E0950B2EBA2FA02D0B01B9019001FA
:100544000C01CA01A0011124FF27591B99F0593F3E
:1005540050F4503E68F11A16F040A22F232F342F86
:100564004427585FF3CF469537952795A795F040D4
:100574005395C9F77EF41F16BA0B620B730B840BE9
:10058400BAF09150A1F0FF0FBB1F661F771F881FA1
:10059400C2F70EC0BA0F621F731F841F48F48795F9
:1005A40077956795B795F7959E3F08F0B0CF9395EB
:0E05B400880F08F09927EE0F97958795089508
:1005C200E89409C097FB3EF49095809570956195EB
:1005D2007F4F8F4F9F4F9923A9F0F92F96E9BB27A1
:1005E2009395F695879577956795B795F111F8CF1D
:1005F200FAF4BB0F11F460FF1BC06F5F7F4F8F4F88
:100602009F4F16C0882311F096E911C0772321F07D
:100612009EE8872F762F05C0662371F096E8862F15
:1006220070E060E02AF09A95660F771F881FDAF76C
:0A063200880F9695879597F90895B3
:10063C008430C8F56830B8F5813091F028F08230FC
:10064C00D9F0833029F108952BB381E090E002C0FA
:10065C00880F991F6A95E2F7809582238BBB0895CA
:10066C0028B381E090E002C0880F991F6A95E2F7E9
:10067C008095822388BB089525B381E090E002C069
:10068C00880F991F6A95E2F78095822385BB0895A0
:10069C0022B381E090E002C0880F991F6A95E2F7BF
:0806AC008095822382BB0895B2
:1006B4001F920F920FB60F9211242F938F939F9333
:1006C400AF93BF938091720090917300A0917400D6
:1006D400B09175000196A11DB11D80937200909395
:1006E4007300A0937400B09375008B3D9240A105F4
:1006F400B10568F012BE1092790010927800109241
:100704007200109273001092740010927500BF91E1
:10071400AF919F918F912F910F900FBE0F901F90CB
:02072400189526
:100726008430A8F5683098F5813089F028F0823059
:10073600C9F0833011F108952BB381E090E002C037
:10074600880F991F6A95E2F7822B8BBB089528B311
:1007560081E090E002C0880F991F6A95E2F7822B2C
:1007660088BB089525B381E090E002C0880F991FE9
:100776006A95E2F7822B85BB089522B381E090E06B
:1007860002C0880F991F6A95E2F7822B82BB0895F3
:10079600982F907F9BBB98B39D7F98BB98B398602A
:1007A60098BBE1EEF4E03197F1F700C0000098B392
:1007B600977F98BBE1EEF4E03197F1F700C00000B7
:1007C600F0E18F9FC00111248BBB88B3886088BB82
:1007D60081EE94E00197F1F700C0000088B3877FAF
:1007E60088BBE1EEF4E03197F1F700C00000089510
:1007F60080EF8ABB87B38E6087BB80E28BBB88B3F2
:10080600886088BB81EE94E00197F1F700C0000094
:1008160088B3877F88BB81EE94E00197F1F700C02B
:10082600000088E20E94CB0381EE94E00197F1F785
:1008360000C000008FE00E94CB0381EE94E0019798
:0E084600F1F700C0000080E80E94CB03089587
:100854000E94CC0488F09F5798F0B92F9927B7517C
:10086400B0F0E1F0660F771F881F991F1AF0BA9550
:10087400C9F714C0B13091F00E941B06B1E008958D
:100884000C941B06672F782F8827B85F39F0B93F7F
:10089400CCF3869577956795B395D9F73EF4909503
:0E08A4008095709561957F4F8F4F9F4F0895FF
:1008B200CF93DF930097F1F0EC018881682F629566
:1008C2006F7041E08F700E94250169816F7088818D
:1008D20041E08F700E9425018881682F62956F70B8
:1008E2008F700E941E038881682F62956F708F70CF
:0A08F2000E941E03DF91CF910895CC
:1008FC00990F0008550FAA0BE0E8FEEF1616170625
:10090C00E807F907C0F012161306E407F50798F08C
:10091C00621B730B840B950B39F40A2661F0232BA5
:10092C00242B252B21F408950A2609F4A140A69521
:08093C008FEF811D811D08955C
:10094400CF93DF93FC01892BD1F080818F70282F06
:1009540030E0253031059CF4608162956F70262F5C
:1009640030E0283031055CF4EF0141E00E942501BC
:100974008881682F62956F708F700E941E03DF91CB
:04098400CF91089572
:1009880057FD9058440F551F59F05F3F71F0479538
:10099800880F97FB991F61F09F3F79F0879508951D
:1009A800121613061406551FF2CF4695F1DF08C03C
:1009B800161617061806991FF1CF86957105610559
:0409C80008940895F2
:1009CC00A1E21A2EAA1BBB1BFD010DC0AA1FBB1F47
:1009DC00EE1FFF1FA217B307E407F50720F0A21BB9
:1009EC00B30BE40BF50B661F771F881F991F1A9426
:1009FC0069F760957095809590959B01AC01BD0150
:040A0C00CF01089579
:100A10001F93CF93DF930097B9F0162FEC016981F4
:100A20006F7088818F700E9493038881682F629510
:100A30006F708F700E941E03898182958F70813044
:100A400019F4812F0E944206DF91CF911F910895E2
:100A500041E067E083E00E94250115BC85B5806414
:100A600085BD85B5886085BD85B5806285BD85B548
:100A70008F7E85BD85B5846085BD85B58D7F85BD3F
:080A800085B58E7F85BD089548
:100A880041E066E081E00E94250140E065E081E008
:100A98000E94250140E067E081E00E94250140E0D6
:0E0AA80064E081E00E94250180E48DB908958C
:100AB6008BE790E00E94A2048AE790E00E94A204DD
:100AC6000E9444050E9428050E94B30586E790E02F
:0E0AD6000E9459040E94FB030E94E905089546
:100AE400FC01892B91F09081892F8F70282F30E0A1
:100AF4002530310554F4692F62956F70262F30E04C
:0C0B04002830310514F40E94930308957A
:100B1000FC01892B91F09081892F8F70282F30E074
:100B20002530310554F4692F62956F70262F30E01F
:0C0B30002830310514F40E941E030895C3
:100B3C00CF93DF93009771F0EC018881682F629559
:100B4C006F708F700E941E0369816F7088818F7027
:0A0B5C000E941E03DF91CF9108955F
:100B660081B3806381BB8FB582608FBD8EB588618E
:100B76008EBD8EB583608EBD8FB580688FBD83ECCC
:080B860099E097BD86BD0895BA
:100B8E008091790081110CC082B3816082BB88E2B2
:100B9E008A95F1F782B38E7F82BB81E080937900D4
:020BAE000895A8
:100BB000092E0394000C11F4882352F0BB0F40F46B
:100BC000BF2B11F460FF04C06F5F7F4F8F4F9F4FAB
:020BD000089586
:100BD20081B3816081BB81B3877F81BB82B388602F
:0C0BE20082BB0E94FF050E94F7050895E9
:100BEE0013BE81E083BF12BE89B7816089BF0895AD
:0E0BFE0085B7846085BF8BB780688BBF089574
:0E0C0C005058BB27AA270E947A020C94D805E4
:0E0C1A0000240A9416161706180609060895F7
:0E0C280000240A9412161306140605060895F9
:0E0C3600E894BB2766277727CB0197F908952E
:0C0C440097F99F6780E870E060E0089579
:0A0C50000E947E0408F481E008957C
:0A0C5A000E947E0408F48FEF089555
:080C6400779BFECF8FB10895CC
:080C6C000E9410020C94D8054F
:060C74009BBD8ABD08953E
:060C7A009FEF80EC0895DD
:040C80000C940000D0
:040C840083BD08958F
:020C8800001159
:010C8A002247
:010C8B001256
:00000001FF
